{"abi":[{"type":"constructor","inputs":[],"stateMutability":"nonpayable"},{"type":"function","name":"acceptAndPay","inputs":[{"name":"bountyId","type":"uint256","internalType":"uint256"}],"outputs":[],"stateMutability":"nonpayable"},{"type":"function","name":"bounties","inputs":[{"name":"","type":"uint256","internalType":"uint256"}],"outputs":[{"name":"creator","type":"address","internalType":"address"},{"name":"solver","type":"address","internalType":"address"},{"name":"token","type":"address","internalType":"address"},{"name":"amount","type":"uint256","internalType":"uint256"},{"name":"metadataHash","type":"bytes32","internalType":"bytes32"},{"name":"createdAt","type":"uint64","internalType":"uint64"},{"name":"deadline","type":"uint64","internalType":"uint64"},{"name":"status","type":"uint8","internalType":"enum BountyEscrow.Status"}],"stateMutability":"view"},{"type":"function","name":"bountyCount","inputs":[],"outputs":[{"name":"","type":"uint256","internalType":"uint256"}],"stateMutability":"view"},{"type":"function","name":"cancel","inputs":[{"name":"bountyId","type":"uint256","internalType":"uint256"}],"outputs":[],"stateMutability":"nonpayable"},{"type":"function","name":"claim","inputs":[{"name":"bountyId","type":"uint256","internalType":"uint256"}],"outputs":[],"stateMutability":"nonpayable"},{"type":"function","name":"createErc20Bounty","inputs":[{"name":"token","type":"address","internalType":"address"},{"name":"amount","type":"uint256","internalType":"uint256"},{"name":"metadataHash","type":"bytes32","internalType":"bytes32"},{"name":"deadline","type":"uint64","internalType":"uint64"}],"outputs":[{"name":"bountyId","type":"uint256","internalType":"uint256"}],"stateMutability":"nonpayable"},{"type":"function","name":"createEthBounty","inputs":[{"name":"metadataHash","type":"bytes32","internalType":"bytes32"},{"name":"deadline","type":"uint64","internalType":"uint64"}],"outputs":[{"name":"bountyId","type":"uint256","internalType":"uint256"}],"stateMutability":"payable"},{"type":"function","name":"owner","inputs":[],"outputs":[{"name":"","type":"address","internalType":"address"}],"stateMutability":"view"},{"type":"function","name":"submit","inputs":[{"name":"bountyId","type":"uint256","internalType":"uint256"},{"name":"workHash","type":"bytes32","internalType":"bytes32"},{"name":"proofUrl","type":"string","internalType":"string"}],"outputs":[],"stateMutability":"nonpayable"},{"type":"event","name":"BountyCancelled","inputs":[{"name":"bountyId","type":"uint256","indexed":true,"internalType":"uint256"}],"anonymous":false},{"type":"event","name":"BountyClaimed","inputs":[{"name":"bountyId","type":"uint256","indexed":true,"internalType":"uint256"},{"name":"solver","type":"address","indexed":true,"internalType":"address"}],"anonymous":false},{"type":"event","name":"BountyCreated","inputs":[{"name":"bountyId","type":"uint256","indexed":true,"internalType":"uint256"},{"name":"token","type":"address","indexed":true,"internalType":"address"},{"name":"amount","type":"uint256","indexed":false,"internalType":"uint256"},{"name":"metadataHash","type":"bytes32","indexed":false,"internalType":"bytes32"},{"name":"deadline","type":"uint64","indexed":false,"internalType":"uint64"}],"anonymous":false},{"type":"event","name":"BountyPaid","inputs":[{"name":"bountyId","type":"uint256","indexed":true,"internalType":"uint256"},{"name":"solver","type":"address","indexed":true,"internalType":"address"},{"name":"amount","type":"uint256","indexed":false,"internalType":"uint256"}],"anonymous":false},{"type":"event","name":"BountySubmitted","inputs":[{"name":"bountyId","type":"uint256","indexed":true,"internalType":"uint256"},{"name":"workHash","type":"bytes32","indexed":true,"internalType":"bytes32"},{"name":"proofUrl","type":"string","indexed":false,"internalType":"string"}],"anonymous":false},{"type":"error","name":"AlreadyClaimed","inputs":[]},{"type":"error","name":"BadStatus","inputs":[{"name":"expected","type":"uint8","internalType":"enum BountyEscrow.Status"},{"name":"got","type":"uint8","internalType":"enum BountyEscrow.Status"}]},{"type":"error","name":"DeadlinePassed","inputs":[]},{"type":"error","name":"InvalidBounty","inputs":[]},{"type":"error","name":"NotOwner","inputs":[]},{"type":"error","name":"NotSolver","inputs":[]},{"type":"error","name":"TransferFailed","inputs":[]}],"bytecode":{"object":"0x60a060405234801561000f575f5ffd5b503373ffffffffffffffffffffffffffffffffffffffff1660808173ffffffffffffffffffffffffffffffffffffffff1681525050608051611d0f6100865f395f818161022f015281816108f101528181610ad301528181610bdb01528181610cca015281816110b401526114f80152611d0f5ff3fe608060405260043610610085575f3560e01c806340e58ee51161005857806340e58ee514610133578063509a29791461015b57806363c7e55a146101835780638da5cb5b146101bf578063dc2f8744146101e957610085565b806313a9c8171461008957806328db8270146100b9578063379607f5146100e15780633e362c9614610109575b5f5ffd5b6100a3600480360381019061009e9190611707565b61022c565b6040516100b0919061175d565b60405180910390f35b3480156100c4575f5ffd5b506100df60048036038101906100da9190611801565b610580565b005b3480156100ec575f5ffd5b5061010760048036038101906101029190611872565b610711565b005b348015610114575f5ffd5b5061011d6108ea565b60405161012a919061175d565b60405180910390f35b34801561013e575f5ffd5b5061015960048036038101906101549190611872565b6108ef565b005b348015610166575f5ffd5b50610181600480360381019061017c9190611872565b610cc8565b005b34801561018e575f5ffd5b506101a960048036038101906101a491906118f7565b6110b1565b6040516101b6919061175d565b60405180910390f35b3480156101ca575f5ffd5b506101d36114f6565b6040516101e0919061196a565b60405180910390f35b3480156101f4575f5ffd5b5061020f600480360381019061020a9190611872565b61151a565b604051610223989796959493929190611a14565b60405180910390f35b5f7f000000000000000000000000000000000000000000000000000000000000000073ffffffffffffffffffffffffffffffffffffffff163373ffffffffffffffffffffffffffffffffffffffff16146102b2576040517f30cd747100000000000000000000000000000000000000000000000000000000815260040160405180910390fd5b5f34036102eb576040517f90b8ec1800000000000000000000000000000000000000000000000000000000815260040160405180910390fd5b5f5f81546102f890611abd565b91905081905590506040518061010001604052803373ffffffffffffffffffffffffffffffffffffffff1681526020015f73ffffffffffffffffffffffffffffffffffffffff1681526020015f73ffffffffffffffffffffffffffffffffffffffff1681526020013481526020018481526020014267ffffffffffffffff1681526020018367ffffffffffffffff1681526020015f600481111561039f5761039e6119a1565b5b81525060015f8381526020019081526020015f205f820151815f015f6101000a81548173ffffffffffffffffffffffffffffffffffffffff021916908373ffffffffffffffffffffffffffffffffffffffff1602179055506020820151816001015f6101000a81548173ffffffffffffffffffffffffffffffffffffffff021916908373ffffffffffffffffffffffffffffffffffffffff1602179055506040820151816002015f6101000a81548173ffffffffffffffffffffffffffffffffffffffff021916908373ffffffffffffffffffffffffffffffffffffffff160217905550606082015181600301556080820151816004015560a0820151816005015f6101000a81548167ffffffffffffffff021916908367ffffffffffffffff16021790555060c08201518160050160086101000a81548167ffffffffffffffff021916908367ffffffffffffffff16021790555060e08201518160050160106101000a81548160ff0219169083600481111561051f5761051e6119a1565b5b02179055509050505f73ffffffffffffffffffffffffffffffffffffffff16817f81a332bd2aeaee1883666b052cfe0d2e61ddc277d15c28f19c438bbb717dde2634868660405161057293929190611b04565b60405180910390a392915050565b5f61058a856115ef565b9050806001015f9054906101000a900473ffffffffffffffffffffffffffffffffffffffff1673ffffffffffffffffffffffffffffffffffffffff163373ffffffffffffffffffffffffffffffffffffffff1614610614576040517fc139eabd00000000000000000000000000000000000000000000000000000000815260040160405180910390fd5b60016004811115610628576106276119a1565b5b8160050160109054906101000a900460ff16600481111561064c5761064b6119a1565b5b146106a25760018160050160109054906101000a900460ff166040517f9e273c52000000000000000000000000000000000000000000000000000000008152600401610699929190611b39565b60405180910390fd5b60028160050160106101000a81548160ff021916908360048111156106ca576106c96119a1565b5b021790555083857f1d7999c15ebd1837ca22dfe1e823b210edb0e7a12e520d44e365d08712f2c16b8585604051610702929190611bba565b60405180910390a35050505050565b5f61071b826115ef565b90505f60048111156107305761072f6119a1565b5b8160050160109054906101000a900460ff166004811115610754576107536119a1565b5b146107a9575f8160050160109054906101000a900460ff166040517f9e273c520000000000000000000000000000000000000000000000000000000081526004016107a0929190611b39565b60405180910390fd5b5f8160050160089054906101000a900467ffffffffffffffff1667ffffffffffffffff16141580156107fc57508060050160089054906101000a900467ffffffffffffffff1667ffffffffffffffff1642115b15610833576040517f70f65caa00000000000000000000000000000000000000000000000000000000815260040160405180910390fd5b33816001015f6101000a81548173ffffffffffffffffffffffffffffffffffffffff021916908373ffffffffffffffffffffffffffffffffffffffff16021790555060018160050160106101000a81548160ff0219169083600481111561089d5761089c6119a1565b5b02179055503373ffffffffffffffffffffffffffffffffffffffff16827fbf59c0d059a57ebf273b4b1643599fc4b48cf5effdd82113a740ed64d262ec9360405160405180910390a35050565b5f5481565b7f000000000000000000000000000000000000000000000000000000000000000073ffffffffffffffffffffffffffffffffffffffff163373ffffffffffffffffffffffffffffffffffffffff1614610974576040517f30cd747100000000000000000000000000000000000000000000000000000000815260040160405180910390fd5b5f61097e826115ef565b905060036004811115610994576109936119a1565b5b8160050160109054906101000a900460ff1660048111156109b8576109b76119a1565b5b14806109f857506004808111156109d2576109d16119a1565b5b8160050160109054906101000a900460ff1660048111156109f6576109f56119a1565b5b145b15610a4d575f8160050160109054906101000a900460ff166040517f9e273c52000000000000000000000000000000000000000000000000000000008152600401610a44929190611b39565b60405180910390fd5b60048160050160106101000a81548160ff02191690836004811115610a7557610a746119a1565b5b02179055505f73ffffffffffffffffffffffffffffffffffffffff16816002015f9054906101000a900473ffffffffffffffffffffffffffffffffffffffff1673ffffffffffffffffffffffffffffffffffffffff1603610b99575f7f000000000000000000000000000000000000000000000000000000000000000073ffffffffffffffffffffffffffffffffffffffff168260030154604051610b1990611c09565b5f6040518083038185875af1925050503d805f8114610b53576040519150601f19603f3d011682016040523d82523d5f602084013e610b58565b606091505b5050905080610b93576040517f90b8ec1800000000000000000000000000000000000000000000000000000000815260040160405180910390fd5b50610c97565b5f816002015f9054906101000a900473ffffffffffffffffffffffffffffffffffffffff1673ffffffffffffffffffffffffffffffffffffffff1663a9059cbb7f000000000000000000000000000000000000000000000000000000000000000084600301546040518363ffffffff1660e01b8152600401610c1c929190611c1d565b6020604051808303815f875af1158015610c38573d5f5f3e3d5ffd5b505050506040513d601f19601f82011682018060405250810190610c5c9190611c79565b905080610c95576040517f90b8ec1800000000000000000000000000000000000000000000000000000000815260040160405180910390fd5b505b817f92717314c0b0f9d632e1d46a0b8437778ff9daee1db8ec295f2bc0b57c4bcaac60405160405180910390a25050565b7f000000000000000000000000000000000000000000000000000000000000000073ffffffffffffffffffffffffffffffffffffffff163373ffffffffffffffffffffffffffffffffffffffff1614610d4d576040517f30cd747100000000000000000000000000000000000000000000000000000000815260040160405180910390fd5b5f610d57826115ef565b905060026004811115610d6d57610d6c6119a1565b5b8160050160109054906101000a900460ff166004811115610d9157610d906119a1565b5b14610de75760028160050160109054906101000a900460ff166040517f9e273c52000000000000000000000000000000000000000000000000000000008152600401610dde929190611b39565b60405180910390fd5b60038160050160106101000a81548160ff02191690836004811115610e0f57610e0e6119a1565b5b02179055505f73ffffffffffffffffffffffffffffffffffffffff16816002015f9054906101000a900473ffffffffffffffffffffffffffffffffffffffff1673ffffffffffffffffffffffffffffffffffffffff1603610f36575f816001015f9054906101000a900473ffffffffffffffffffffffffffffffffffffffff1673ffffffffffffffffffffffffffffffffffffffff168260030154604051610eb690611c09565b5f6040518083038185875af1925050503d805f8114610ef0576040519150601f19603f3d011682016040523d82523d5f602084013e610ef5565b606091505b5050905080610f30576040517f90b8ec1800000000000000000000000000000000000000000000000000000000815260040160405180910390fd5b50611037565b5f816002015f9054906101000a900473ffffffffffffffffffffffffffffffffffffffff1673ffffffffffffffffffffffffffffffffffffffff1663a9059cbb836001015f9054906101000a900473ffffffffffffffffffffffffffffffffffffffff1684600301546040518363ffffffff1660e01b8152600401610fbc929190611c1d565b6020604051808303815f875af1158015610fd8573d5f5f3e3d5ffd5b505050506040513d601f19601f82011682018060405250810190610ffc9190611c79565b905080611035576040517f90b8ec1800000000000000000000000000000000000000000000000000000000815260040160405180910390fd5b505b806001015f9054906101000a900473ffffffffffffffffffffffffffffffffffffffff1673ffffffffffffffffffffffffffffffffffffffff16827f07e339a02227d9329089b11d9cdeea1af6caea87244864b70935aca91d7dc7fd83600301546040516110a5919061175d565b60405180910390a35050565b5f7f000000000000000000000000000000000000000000000000000000000000000073ffffffffffffffffffffffffffffffffffffffff163373ffffffffffffffffffffffffffffffffffffffff1614611137576040517f30cd747100000000000000000000000000000000000000000000000000000000815260040160405180910390fd5b5f73ffffffffffffffffffffffffffffffffffffffff168573ffffffffffffffffffffffffffffffffffffffff16148061117057505f84145b156111a7576040517f90b8ec1800000000000000000000000000000000000000000000000000000000815260040160405180910390fd5b5f8573ffffffffffffffffffffffffffffffffffffffff166323b872dd3330886040518463ffffffff1660e01b81526004016111e593929190611ca4565b6020604051808303815f875af1158015611201573d5f5f3e3d5ffd5b505050506040513d601f19601f820116820180604052508101906112259190611c79565b90508061125e576040517f90b8ec1800000000000000000000000000000000000000000000000000000000815260040160405180910390fd5b5f5f815461126b90611abd565b91905081905591506040518061010001604052803373ffffffffffffffffffffffffffffffffffffffff1681526020015f73ffffffffffffffffffffffffffffffffffffffff1681526020018773ffffffffffffffffffffffffffffffffffffffff1681526020018681526020018581526020014267ffffffffffffffff1681526020018467ffffffffffffffff1681526020015f6004811115611312576113116119a1565b5b81525060015f8481526020019081526020015f205f820151815f015f6101000a81548173ffffffffffffffffffffffffffffffffffffffff021916908373ffffffffffffffffffffffffffffffffffffffff1602179055506020820151816001015f6101000a81548173ffffffffffffffffffffffffffffffffffffffff021916908373ffffffffffffffffffffffffffffffffffffffff1602179055506040820151816002015f6101000a81548173ffffffffffffffffffffffffffffffffffffffff021916908373ffffffffffffffffffffffffffffffffffffffff160217905550606082015181600301556080820151816004015560a0820151816005015f6101000a81548167ffffffffffffffff021916908367ffffffffffffffff16021790555060c08201518160050160086101000a81548167ffffffffffffffff021916908367ffffffffffffffff16021790555060e08201518160050160106101000a81548160ff02191690836004811115611492576114916119a1565b5b02179055509050508573ffffffffffffffffffffffffffffffffffffffff16827f81a332bd2aeaee1883666b052cfe0d2e61ddc277d15c28f19c438bbb717dde268787876040516114e593929190611b04565b60405180910390a350949350505050565b7f000000000000000000000000000000000000000000000000000000000000000081565b6001602052805f5260405f205f91509050805f015f9054906101000a900473ffffffffffffffffffffffffffffffffffffffff1690806001015f9054906101000a900473ffffffffffffffffffffffffffffffffffffffff1690806002015f9054906101000a900473ffffffffffffffffffffffffffffffffffffffff1690806003015490806004015490806005015f9054906101000a900467ffffffffffffffff16908060050160089054906101000a900467ffffffffffffffff16908060050160109054906101000a900460ff16905088565b5f60015f8381526020019081526020015f2090505f73ffffffffffffffffffffffffffffffffffffffff16815f015f9054906101000a900473ffffffffffffffffffffffffffffffffffffffff1673ffffffffffffffffffffffffffffffffffffffff160361168a576040517fce8338ed00000000000000000000000000000000000000000000000000000000815260040160405180910390fd5b919050565b5f5ffd5b5f5ffd5b5f819050919050565b6116a981611697565b81146116b3575f5ffd5b50565b5f813590506116c4816116a0565b92915050565b5f67ffffffffffffffff82169050919050565b6116e6816116ca565b81146116f0575f5ffd5b50565b5f81359050611701816116dd565b92915050565b5f5f6040838503121561171d5761171c61168f565b5b5f61172a858286016116b6565b925050602061173b858286016116f3565b9150509250929050565b5f819050919050565b61175781611745565b82525050565b5f6020820190506117705f83018461174e565b92915050565b61177f81611745565b8114611789575f5ffd5b50565b5f8135905061179a81611776565b92915050565b5f5ffd5b5f5ffd5b5f5ffd5b5f5f83601f8401126117c1576117c06117a0565b5b8235905067ffffffffffffffff8111156117de576117dd6117a4565b5b6020830191508360018202830111156117fa576117f96117a8565b5b9250929050565b5f5f5f5f606085870312156118195761181861168f565b5b5f6118268782880161178c565b9450506020611837878288016116b6565b935050604085013567ffffffffffffffff81111561185857611857611693565b5b611864878288016117ac565b925092505092959194509250565b5f602082840312156118875761188661168f565b5b5f6118948482850161178c565b91505092915050565b5f73ffffffffffffffffffffffffffffffffffffffff82169050919050565b5f6118c68261189d565b9050919050565b6118d6816118bc565b81146118e0575f5ffd5b50565b5f813590506118f1816118cd565b92915050565b5f5f5f5f6080858703121561190f5761190e61168f565b5b5f61191c878288016118e3565b945050602061192d8782880161178c565b935050604061193e878288016116b6565b925050606061194f878288016116f3565b91505092959194509250565b611964816118bc565b82525050565b5f60208201905061197d5f83018461195b565b92915050565b61198c81611697565b82525050565b61199b816116ca565b82525050565b7f4e487b71000000000000000000000000000000000000000000000000000000005f52602160045260245ffd5b600581106119df576119de6119a1565b5b50565b5f8190506119ef826119ce565b919050565b5f6119fe826119e2565b9050919050565b611a0e816119f4565b82525050565b5f61010082019050611a285f83018b61195b565b611a35602083018a61195b565b611a42604083018961195b565b611a4f606083018861174e565b611a5c6080830187611983565b611a6960a0830186611992565b611a7660c0830185611992565b611a8360e0830184611a05565b9998505050505050505050565b7f4e487b71000000000000000000000000000000000000000000000000000000005f52601160045260245ffd5b5f611ac782611745565b91507fffffffffffffffffffffffffffffffffffffffffffffffffffffffffffffffff8203611af957611af8611a90565b5b600182019050919050565b5f606082019050611b175f83018661174e565b611b246020830185611983565b611b316040830184611992565b949350505050565b5f604082019050611b4c5f830185611a05565b611b596020830184611a05565b9392505050565b5f82825260208201905092915050565b828183375f83830152505050565b5f601f19601f8301169050919050565b5f611b998385611b60565b9350611ba6838584611b70565b611baf83611b7e565b840190509392505050565b5f6020820190508181035f830152611bd3818486611b8e565b90509392505050565b5f81905092915050565b50565b5f611bf45f83611bdc565b9150611bff82611be6565b5f82019050919050565b5f611c1382611be9565b9150819050919050565b5f604082019050611c305f83018561195b565b611c3d602083018461174e565b9392505050565b5f8115159050919050565b611c5881611c44565b8114611c62575f5ffd5b50565b5f81519050611c7381611c4f565b92915050565b5f60208284031215611c8e57611c8d61168f565b5b5f611c9b84828501611c65565b91505092915050565b5f606082019050611cb75f83018661195b565b611cc4602083018561195b565b611cd1604083018461174e565b94935050505056fea2646970667358221220fee09bac7fbf50a85fea7767bc3805e439d59d03c1988a5e36aa04f105a7d35564736f6c63430008210033","linkReferences":{}},"methodIdentifiers":{"acceptAndPay(uint256)":"509a2979","bounties(uint256)":"dc2f8744","bountyCount()":"3e362c96","cancel(uint256)":"40e58ee5","claim(uint256)":"379607f5","createErc20Bounty(address,uint256,bytes32,uint64)":"63c7e55a","createEthBounty(bytes32,uint64)":"13a9c817","owner()":"8da5cb5b","submit(uint256,bytes32,string)":"28db8270"},"id":20}